{
    "contractName": "Token",
    "abi": [
        {
            "inputs": [
                {
                    "internalType": "string",
                    "name": "name_",
                    "type": "string"
                },
                {
                    "internalType": "string",
                    "name": "symbol_",
                    "type": "string"
                },
                {
                    "internalType": "address",
                    "name": "admin0_",
                    "type": "address"
                }
            ],
            "stateMutability": "nonpayable",
            "type": "constructor"
        },
        {
            "inputs": [
                {
                    "internalType": "address",
                    "name": "spender",
                    "type": "address"
                },
                {
                    "internalType": "uint256",
                    "name": "allowance",
                    "type": "uint256"
                },
                {
                    "internalType": "uint256",
                    "name": "needed",
                    "type": "uint256"
                }
            ],
            "name": "ERC20InsufficientAllowance",
            "type": "error"
        },
        {
            "inputs": [
                {
                    "internalType": "address",
                    "name": "sender",
                    "type": "address"
                },
                {
                    "internalType": "uint256",
                    "name": "balance",
                    "type": "uint256"
                },
                {
                    "internalType": "uint256",
                    "name": "needed",
                    "type": "uint256"
                }
            ],
            "name": "ERC20InsufficientBalance",
            "type": "error"
        },
        {
            "inputs": [
                {
                    "internalType": "address",
                    "name": "approver",
                    "type": "address"
                }
            ],
            "name": "ERC20InvalidApprover",
            "type": "error"
        },
        {
            "inputs": [
                {
                    "internalType": "address",
                    "name": "receiver",
                    "type": "address"
                }
            ],
            "name": "ERC20InvalidReceiver",
            "type": "error"
        },
        {
            "inputs": [
                {
                    "internalType": "address",
                    "name": "sender",
                    "type": "address"
                }
            ],
            "name": "ERC20InvalidSender",
            "type": "error"
        },
        {
            "inputs": [
                {
                    "internalType": "address",
                    "name": "spender",
                    "type": "address"
                }
            ],
            "name": "ERC20InvalidSpender",
            "type": "error"
        },
        {
            "inputs": [],
            "name": "NotAuthorized",
            "type": "error"
        },
        {
            "inputs": [],
            "name": "NotOwner",
            "type": "error"
        },
        {
            "anonymous": false,
            "inputs": [
                {
                    "indexed": true,
                    "internalType": "address",
                    "name": "owner",
                    "type": "address"
                },
                {
                    "indexed": true,
                    "internalType": "address",
                    "name": "spender",
                    "type": "address"
                },
                {
                    "indexed": false,
                    "internalType": "uint256",
                    "name": "value",
                    "type": "uint256"
                }
            ],
            "name": "Approval",
            "type": "event"
        },
        {
            "anonymous": false,
            "inputs": [
                {
                    "indexed": false,
                    "internalType": "uint256",
                    "name": "newBuyFee",
                    "type": "uint256"
                },
                {
                    "indexed": false,
                    "internalType": "uint256",
                    "name": "newSellFee",
                    "type": "uint256"
                }
            ],
            "name": "FeesUpdated",
            "type": "event"
        },
        {
            "anonymous": false,
            "inputs": [
                {
                    "indexed": true,
                    "internalType": "address",
                    "name": "previousOwner",
                    "type": "address"
                },
                {
                    "indexed": true,
                    "internalType": "address",
                    "name": "newOwner",
                    "type": "address"
                }
            ],
            "name": "OwnershipTransferred",
            "type": "event"
        },
        {
            "anonymous": false,
            "inputs": [
                {
                    "indexed": true,
                    "internalType": "address",
                    "name": "from",
                    "type": "address"
                },
                {
                    "indexed": true,
                    "internalType": "address",
                    "name": "to",
                    "type": "address"
                },
                {
                    "indexed": false,
                    "internalType": "uint256",
                    "name": "value",
                    "type": "uint256"
                }
            ],
            "name": "Transfer",
            "type": "event"
        },
        {
            "inputs": [
                {
                    "internalType": "uint256",
                    "name": "",
                    "type": "uint256"
                }
            ],
            "name": "adminList",
            "outputs": [
                {
                    "internalType": "address",
                    "name": "",
                    "type": "address"
                }
            ],
            "stateMutability": "view",
            "type": "function"
        },
        {
            "inputs": [
                {
                    "internalType": "address",
                    "name": "owner",
                    "type": "address"
                },
                {
                    "internalType": "address",
                    "name": "spender",
                    "type": "address"
                }
            ],
            "name": "allowance",
            "outputs": [
                {
                    "internalType": "uint256",
                    "name": "",
                    "type": "uint256"
                }
            ],
            "stateMutability": "view",
            "type": "function"
        },
        {
            "inputs": [
                {
                    "internalType": "address",
                    "name": "spender",
                    "type": "address"
                },
                {
                    "internalType": "uint256",
                    "name": "amount",
                    "type": "uint256"
                }
            ],
            "name": "approve",
            "outputs": [
                {
                    "internalType": "bool",
                    "name": "",
                    "type": "bool"
                }
            ],
            "stateMutability": "nonpayable",
            "type": "function"
        },
        {
            "inputs": [
                {
                    "internalType": "address",
                    "name": "account",
                    "type": "address"
                }
            ],
            "name": "balanceOf",
            "outputs": [
                {
                    "internalType": "uint256",
                    "name": "",
                    "type": "uint256"
                }
            ],
            "stateMutability": "view",
            "type": "function"
        },
        {
            "inputs": [
                {
                    "internalType": "uint256",
                    "name": "amount",
                    "type": "uint256"
                }
            ],
            "name": "burn",
            "outputs": [],
            "stateMutability": "nonpayable",
            "type": "function"
        },
        {
            "inputs": [],
            "name": "buy",
            "outputs": [],
            "stateMutability": "payable",
            "type": "function"
        },
        {
            "inputs": [],
            "name": "buyFee",
            "outputs": [
                {
                    "internalType": "uint256",
                    "name": "",
                    "type": "uint256"
                }
            ],
            "stateMutability": "view",
            "type": "function"
        },
        {
            "inputs": [],
            "name": "decimals",
            "outputs": [
                {
                    "internalType": "uint8",
                    "name": "",
                    "type": "uint8"
                }
            ],
            "stateMutability": "view",
            "type": "function"
        },
        {
            "inputs": [],
            "name": "fees",
            "outputs": [
                {
                    "internalType": "bool",
                    "name": "",
                    "type": "bool"
                }
            ],
            "stateMutability": "view",
            "type": "function"
        },
        {
            "inputs": [
                {
                    "internalType": "uint256",
                    "name": "amount",
                    "type": "uint256"
                }
            ],
            "name": "mint",
            "outputs": [],
            "stateMutability": "nonpayable",
            "type": "function"
        },
        {
            "inputs": [],
            "name": "name",
            "outputs": [
                {
                    "internalType": "string",
                    "name": "",
                    "type": "string"
                }
            ],
            "stateMutability": "view",
            "type": "function"
        },
        {
            "inputs": [],
            "name": "owner",
            "outputs": [
                {
                    "internalType": "address",
                    "name": "",
                    "type": "address"
                }
            ],
            "stateMutability": "view",
            "type": "function"
        },
        {
            "inputs": [
                {
                    "internalType": "address",
                    "name": "_adminToRemove",
                    "type": "address"
                }
            ],
            "name": "removeAdmin",
            "outputs": [],
            "stateMutability": "nonpayable",
            "type": "function"
        },
        {
            "inputs": [],
            "name": "renounceOwnership",
            "outputs": [],
            "stateMutability": "nonpayable",
            "type": "function"
        },
        {
            "inputs": [
                {
                    "internalType": "uint256",
                    "name": "amount",
                    "type": "uint256"
                }
            ],
            "name": "sell",
            "outputs": [],
            "stateMutability": "nonpayable",
            "type": "function"
        },
        {
            "inputs": [],
            "name": "sellFee",
            "outputs": [
                {
                    "internalType": "uint256",
                    "name": "",
                    "type": "uint256"
                }
            ],
            "stateMutability": "view",
            "type": "function"
        },
        {
            "inputs": [
                {
                    "internalType": "address",
                    "name": "newAdmin",
                    "type": "address"
                }
            ],
            "name": "setAdmin",
            "outputs": [],
            "stateMutability": "nonpayable",
            "type": "function"
        },
        {
            "inputs": [],
            "name": "setting",
            "outputs": [
                {
                    "internalType": "bool",
                    "name": "",
                    "type": "bool"
                }
            ],
            "stateMutability": "nonpayable",
            "type": "function"
        },
        {
            "inputs": [],
            "name": "symbol",
            "outputs": [
                {
                    "internalType": "string",
                    "name": "",
                    "type": "string"
                }
            ],
            "stateMutability": "view",
            "type": "function"
        },
        {
            "inputs": [
                {
                    "internalType": "address",
                    "name": "",
                    "type": "address"
                }
            ],
            "name": "teamMember",
            "outputs": [
                {
                    "internalType": "bool",
                    "name": "",
                    "type": "bool"
                }
            ],
            "stateMutability": "view",
            "type": "function"
        },
        {
            "inputs": [],
            "name": "totalSupply",
            "outputs": [
                {
                    "internalType": "uint256",
                    "name": "",
                    "type": "uint256"
                }
            ],
            "stateMutability": "view",
            "type": "function"
        },
        {
            "inputs": [
                {
                    "internalType": "address",
                    "name": "recipient",
                    "type": "address"
                },
                {
                    "internalType": "uint256",
                    "name": "amount",
                    "type": "uint256"
                }
            ],
            "name": "transfer",
            "outputs": [
                {
                    "internalType": "bool",
                    "name": "",
                    "type": "bool"
                }
            ],
            "stateMutability": "nonpayable",
            "type": "function"
        },
        {
            "inputs": [
                {
                    "internalType": "address",
                    "name": "sender",
                    "type": "address"
                },
                {
                    "internalType": "address",
                    "name": "recipient",
                    "type": "address"
                },
                {
                    "internalType": "uint256",
                    "name": "amount",
                    "type": "uint256"
                }
            ],
            "name": "transferFrom",
            "outputs": [
                {
                    "internalType": "bool",
                    "name": "",
                    "type": "bool"
                }
            ],
            "stateMutability": "nonpayable",
            "type": "function"
        }
    ],
    "bytecode": "608060405260646010556011805460ff1916600117905534801562000022575f80fd5b5060405162001b8338038062001b838339810160408190526200004591620003cd565b82826003620000558382620004de565b506004620000648282620004de565b50600591506200007790508482620004de565b506006620000868382620004de565b50600880546001600160a01b03199081163390811783555f81815260096020526040808220805460ff19908116600190811790925595546007805480840182557fa66cc928b5edb82af9bd49922954155ab7b0942694bea4ce44661d9a8736c688908101805489166001600160a01b03948516179055600c80548b8516908a168117825587529486208054909916841790985592548354928301845592909352909401805484169490911693909317909255600d805490911682179055620001599069d3c21bcecceda10000006200019d565b6200017969be951906eba2aa80000069d3c21bcecceda1000000620005be565b600c546001600160a01b03165f908152600a602052604090205550620005f0915050565b6001600160a01b038216620001cc5760405163ec442f0560e01b81525f60048201526024015b60405180910390fd5b620001d95f8383620001dd565b5050565b6001600160a01b0383166200020b578060025f828254620001ff9190620005da565b909155506200027d9050565b6001600160a01b0383165f90815260208190526040902054818110156200025f5760405163391434e360e21b81526001600160a01b03851660048201526024810182905260448101839052606401620001c3565b6001600160a01b0384165f9081526020819052604090209082900390555b6001600160a01b0382166200029b57600280548290039055620002b9565b6001600160a01b0382165f9081526020819052604090208054820190555b816001600160a01b0316836001600160a01b03167fddf252ad1be2c89b69c2b068fc378daa952ba7f163c4a11628f55a4df523b3ef83604051620002ff91815260200190565b60405180910390a3505050565b634e487b7160e01b5f52604160045260245ffd5b5f82601f83011262000330575f80fd5b81516001600160401b03808211156200034d576200034d6200030c565b604051601f8301601f19908116603f011681019082821181831017156200037857620003786200030c565b816040528381526020925086602085880101111562000395575f80fd5b5f91505b83821015620003b8578582018301518183018401529082019062000399565b5f602085830101528094505050505092915050565b5f805f60608486031215620003e0575f80fd5b83516001600160401b0380821115620003f7575f80fd5b620004058783880162000320565b945060208601519150808211156200041b575f80fd5b506200042a8682870162000320565b604086015190935090506001600160a01b038116811462000449575f80fd5b809150509250925092565b600181811c908216806200046957607f821691505b6020821081036200048857634e487b7160e01b5f52602260045260245ffd5b50919050565b601f821115620004d957805f5260205f20601f840160051c81016020851015620004b55750805b601f840160051c820191505b81811015620004d6575f8155600101620004c1565b50505b505050565b81516001600160401b03811115620004fa57620004fa6200030c565b62000512816200050b845462000454565b846200048e565b602080601f83116001811462000548575f8415620005305750858301515b5f19600386901b1c1916600185901b178555620005a2565b5f85815260208120601f198616915b82811015620005785788860151825594840194600190910190840162000557565b50858210156200059657878501515f19600388901b60f8161c191681555b505060018460011b0185555b505050505050565b634e487b7160e01b5f52601160045260245ffd5b81810381811115620005d457620005d4620005aa565b92915050565b80820180821115620005d457620005d4620005aa565b61158580620005fe5f395ff3fe60806040526004361061013c575f3560e01c8063704b6c02116100b3578063a0712d681161006d578063a0712d6814610373578063a6f2ae3a14610392578063a9059cbb1461039a578063c0c9ce30146103b9578063dd62ed3e146103cd578063e4849b3214610411575f80fd5b8063704b6c02146102c057806370a08231146102df578063715018a6146103135780638da5cb5b1461032757806395d89b41146103465780639af1d35a1461035a575f80fd5b806323b872dd1161010457806323b872dd1461020f5780632b14ca561461022e578063303fe55d14610243578063313ce5671461027157806342966c681461028c57806347062402146102ab575f80fd5b806306fdde0314610140578063095ea7b31461016a57806311117fc8146101995780631785f53c146101d057806318160ddd146101f1575b5f80fd5b34801561014b575f80fd5b50610154610430565b6040516101619190611336565b60405180910390f35b348015610175575f80fd5b5061018961018436600461139d565b6104c0565b6040519015158152602001610161565b3480156101a4575f80fd5b506101b86101b33660046113c5565b6104d6565b6040516001600160a01b039091168152602001610161565b3480156101db575f80fd5b506101ef6101ea3660046113dc565b6104fe565b005b3480156101fc575f80fd5b506002545b604051908152602001610161565b34801561021a575f80fd5b506101896102293660046113f5565b61070b565b348015610239575f80fd5b5061020160105481565b34801561024e575f80fd5b5061018961025d3660046113dc565b60096020525f908152604090205460ff1681565b34801561027c575f80fd5b5060405160128152602001610161565b348015610297575f80fd5b506101ef6102a63660046113c5565b6107a4565b3480156102b6575f80fd5b50610201600f5481565b3480156102cb575f80fd5b506101ef6102da3660046113dc565b6107b1565b3480156102ea575f80fd5b506102016102f93660046113dc565b6001600160a01b03165f9081526020819052604090205490565b34801561031e575f80fd5b506101ef6108ed565b348015610332575f80fd5b506008546101b8906001600160a01b031681565b348015610351575f80fd5b50610154610961565b348015610365575f80fd5b506011546101899060ff1681565b34801561037e575f80fd5b506101ef61038d3660046113c5565b610970565b6101ef610af9565b3480156103a5575f80fd5b506101896103b436600461139d565b610cc9565b3480156103c4575f80fd5b50610189610cd5565b3480156103d8575f80fd5b506102016103e736600461142e565b6001600160a01b039182165f90815260016020908152604080832093909416825291909152205490565b34801561041c575f80fd5b506101ef61042b3660046113c5565b610dd1565b60606003805461043f9061145f565b80601f016020809104026020016040519081016040528092919081815260200182805461046b9061145f565b80156104b65780601f1061048d576101008083540402835291602001916104b6565b820191905f5260205f20905b81548152906001019060200180831161049957829003601f168201915b5050505050905090565b5f6104cc338484610f1b565b5060015b92915050565b600781815481106104e5575f80fd5b5f918252602090912001546001600160a01b0316905081565b6008546001600160a01b03163314610529576040516330cd747160e01b815260040160405180910390fd5b6007546105685760405162461bcd60e51b815260206004820152600860248201526737379030b236b4b760c11b60448201526064015b60405180910390fd5b6001600160a01b0381165f9081526009602052604090205460ff166105cf5760405162461bcd60e51b815260206004820181905260248201527f54686973206164647265737320697320616c72656164792061206d656d626572604482015260640161055f565b5f805b60075481101561062257826001600160a01b0316600782815481106105f9576105f9611497565b5f918252602090912001546001600160a01b03160361061a57809150610622565b6001016105d2565b50805b600754610634906001906114bf565b8110156106b35760076106488260016114d2565b8154811061065857610658611497565b5f91825260209091200154600780546001600160a01b03909216918390811061068357610683611497565b5f91825260209091200180546001600160a01b0319166001600160a01b0392909216919091179055600101610625565b5060078054806106c5576106c56114e5565b5f828152602080822083015f1990810180546001600160a01b03191690559092019092556001600160a01b0393909316815260099092525060409020805460ff19169055565b5f610717848484610f28565b5f61072285336103e7565b9050828110156107855760405162461bcd60e51b815260206004820152602860248201527f45524332303a207472616e7366657220616d6f756e74206578636565647320616044820152676c6c6f77616e636560c01b606482015260840161055f565b610799853361079486856114bf565b610f1b565b506001949350505050565b6107ae3382610f85565b50565b6008546001600160a01b031633146107dc576040516330cd747160e01b815260040160405180910390fd5b600754600a116108205760405162461bcd60e51b815260206004820152600f60248201526e746f6f206d616e792061646d696e7360881b604482015260640161055f565b6001600160a01b0381165f9081526009602052604090205460ff16156108885760405162461bcd60e51b815260206004820181905260248201527f54686973206164647265737320697320616c72656164792061206d656d626572604482015260640161055f565b6001600160a01b03165f818152600960205260408120805460ff191660019081179091556007805491820181559091527fa66cc928b5edb82af9bd49922954155ab7b0942694bea4ce44661d9a8736c6880180546001600160a01b0319169091179055565b6008546001600160a01b03163314610918576040516330cd747160e01b815260040160405180910390fd5b6008546040515f916001600160a01b0316907f8be0079c531659141344cd1fd0a4f28419497f9722a3daafe3b4186f6b6457e0908390a3600880546001600160a01b0319169055565b60606004805461043f9061145f565b335f9081526009602052604090205460ff166109ce5760405162461bcd60e51b815260206004820152601c60248201527f546869732061646472657373206973206e6f742061206d656d62657200000000604482015260640161055f565b33610a1b5760405162461bcd60e51b815260206004820152601f60248201527f45524332303a206d696e7420746f20746865207a65726f206164647265737300604482015260640161055f565b335f9081526020819052604090205469021e19e0c9bab24000001015610a955760405162461bcd60e51b815260206004820152602960248201527f4d6178206d696e7420616d6f756e7420657863656564656420666f72207468696044820152681cc81858d8dbdd5b9d60ba1b606482015260840161055f565b69021e19e0c9bab2400000811115610aef5760405162461bcd60e51b815260206004820152601860248201527f4d6178206d696e7420616d6f756e742065786365656465640000000000000000604482015260640161055f565b6107ae3382610fbd565b5f3411610b525760405162461bcd60e51b815260206004820152602160248201527f45544820616d6f756e74206d7573742062652067726561746572207468616e206044820152600360fc1b606482015260840161055f565b600f54349015610c5a575f610b7d6064610b77600f5485610ff190919063ffffffff16565b9061106c565b90505f610b8a83836110b9565b600d546001600160a01b03165f908152600a6020526040902054909150610bb1908261110b565b600d80546001600160a01b039081165f908152600a6020908152604091829020949094559154915184815291169130915f80516020611530833981519152910160405180910390a38115610c5557305f908152600a6020526040902054610c18908361110b565b305f818152600a60205260409081902092909255905181905f8051602061153083398151915290610c4c9086815260200190565b60405180910390a35b505050565b600d546001600160a01b03165f908152600a6020526040902054610c7e908261110b565b600d80546001600160a01b039081165f908152600a6020908152604091829020949094559154915184815291169130915f80516020611530833981519152910160405180910390a350565b5f6104cc338484610f28565b6008545f906001600160a01b03163314610d02576040516330cd747160e01b815260040160405180910390fd5b5f600f8190556010549003610d6b5760646010819055600f546040517f5c6323bf1c2d7aaea2c091a4751c1c87af7f2864650c336507a77d0557af37a192610d51928252602082015260400190565b60405180910390a16011805460ff19166001179055610dc7565b601054606403610dc7575f6010819055600f546040517f5c6323bf1c2d7aaea2c091a4751c1c87af7f2864650c336507a77d0557af37a192610db4928252602082015260400190565b60405180910390a16011805460ff191690555b5060115460ff1690565b335f908152600a6020526040902054811115610e265760405162461bcd60e51b8152602060048201526014602482015273496e73756666696369656e742062616c616e636560601b604482015260640161055f565b5f610e416064610b7760105485610ff190919063ffffffff16565b90505f610e4e83836110b9565b335f908152600a6020526040902054909150610e6a90846110b9565b335f908152600a6020526040808220929092553081522054610e8c908261110b565b305f818152600a60205260409081902092909255905133905f8051602061153083398151915290610ec09085815260200190565b60405180910390a38115610c5557305f908152600a6020526040902054610ee7908361110b565b305f818152600a60205260409081902092909255905133905f8051602061153083398151915290610c4c9086815260200190565b610c55838383600161115d565b6001600160a01b038316610f5157604051634b637e8f60e11b81525f600482015260240161055f565b6001600160a01b038216610f7a5760405163ec442f0560e01b81525f600482015260240161055f565b610c55838383611230565b6001600160a01b038216610fae57604051634b637e8f60e11b81525f600482015260240161055f565b610fb9825f83611230565b5050565b6001600160a01b038216610fe65760405163ec442f0560e01b81525f600482015260240161055f565b610fb95f8383611230565b5f825f0361100057505f6104d0565b5f61100b83856114f9565b9050826110188583611510565b146110655760405162461bcd60e51b815260206004820152601760248201527f4d756c7469706c69636174696f6e206f766572666c6f77000000000000000000604482015260640161055f565b9392505050565b5f8082116110af5760405162461bcd60e51b815260206004820152601060248201526f4469766973696f6e206279207a65726f60801b604482015260640161055f565b6110658284611510565b5f828211156111015760405162461bcd60e51b81526020600482015260146024820152735375627472616374696f6e206f766572666c6f7760601b604482015260640161055f565b61106582846114bf565b5f8061111783856114d2565b9050838110156110655760405162461bcd60e51b81526020600482015260116024820152704164646974696f6e206f766572666c6f7760781b604482015260640161055f565b6001600160a01b0384166111865760405163e602df0560e01b81525f600482015260240161055f565b6001600160a01b0383166111af57604051634a1406b160e11b81525f600482015260240161055f565b6001600160a01b038085165f908152600160209081526040808320938716835292905220829055801561122a57826001600160a01b0316846001600160a01b03167f8c5be1e5ebec7d5bd14f71427d1e84f3dd0314c0f7b2291e5b200ac8c7c3b9258460405161122191815260200190565b60405180910390a35b50505050565b6001600160a01b03831661125a578060025f82825461124f91906114d2565b909155506112ca9050565b6001600160a01b0383165f90815260208190526040902054818110156112ac5760405163391434e360e21b81526001600160a01b0385166004820152602481018290526044810183905260640161055f565b6001600160a01b0384165f9081526020819052604090209082900390555b6001600160a01b0382166112e657600280548290039055611304565b6001600160a01b0382165f9081526020819052604090208054820190555b816001600160a01b0316836001600160a01b03165f8051602061153083398151915283604051610c4c91815260200190565b5f602080835283518060208501525f5b8181101561136257858101830151858201604001528201611346565b505f604082860101526040601f19601f8301168501019250505092915050565b80356001600160a01b0381168114611398575f80fd5b919050565b5f80604083850312156113ae575f80fd5b6113b783611382565b946020939093013593505050565b5f602082840312156113d5575f80fd5b5035919050565b5f602082840312156113ec575f80fd5b61106582611382565b5f805f60608486031215611407575f80fd5b61141084611382565b925061141e60208501611382565b9150604084013590509250925092565b5f806040838503121561143f575f80fd5b61144883611382565b915061145660208401611382565b90509250929050565b600181811c9082168061147357607f821691505b60208210810361149157634e487b7160e01b5f52602260045260245ffd5b50919050565b634e487b7160e01b5f52603260045260245ffd5b634e487b7160e01b5f52601160045260245ffd5b818103818111156104d0576104d06114ab565b808201808211156104d0576104d06114ab565b634e487b7160e01b5f52603160045260245ffd5b80820281158282048414176104d0576104d06114ab565b5f8261152a57634e487b7160e01b5f52601260045260245ffd5b50049056feddf252ad1be2c89b69c2b068fc378daa952ba7f163c4a11628f55a4df523b3efa26469706673582212206754eed9d7f144d6aa96aee6e66c365ab5af0ac3b3d2668ae39c4ec67e850ea264736f6c63430008170033",
    "sourcePath": "/home/benji/TOKEN GIFT/contracts/Token.sol",
    "compiler": {
        "name": "solc",
        "version": "0.8.23+commit.f704f362"
    },
    "functionHashes": {
        "adminList(uint256)": "11117fc8",
        "allowance(address,address)": "dd62ed3e",
        "approve(address,uint256)": "095ea7b3",
        "balanceOf(address)": "70a08231",
        "burn(uint256)": "42966c68",
        "buy()": "a6f2ae3a",
        "buyFee()": "47062402",
        "decimals()": "313ce567",
        "fees()": "9af1d35a",
        "mint(uint256)": "a0712d68",
        "name()": "06fdde03",
        "owner()": "8da5cb5b",
        "removeAdmin(address)": "1785f53c",
        "renounceOwnership()": "715018a6",
        "sell(uint256)": "e4849b32",
        "sellFee()": "2b14ca56",
        "setAdmin(address)": "704b6c02",
        "setting()": "c0c9ce30",
        "symbol()": "95d89b41",
        "teamMember(address)": "303fe55d",
        "totalSupply()": "18160ddd",
        "transfer(address,uint256)": "a9059cbb",
        "transferFrom(address,address,uint256)": "23b872dd"
    },
    "gasEstimates": {
        "creation": {
            "codeDepositCost": "1101800",
            "executionCost": "infinite",
            "totalCost": "infinite"
        },
        "external": {
            "adminList(uint256)": "4679",
            "allowance(address,address)": "infinite",
            "approve(address,uint256)": "24751",
            "balanceOf(address)": "2582",
            "burn(uint256)": "infinite",
            "buy()": "infinite",
            "buyFee()": "2427",
            "decimals()": "265",
            "fees()": "2442",
            "mint(uint256)": "infinite",
            "name()": "infinite",
            "owner()": "2425",
            "removeAdmin(address)": "infinite",
            "renounceOwnership()": "30227",
            "sell(uint256)": "infinite",
            "sellFee()": "2339",
            "setAdmin(address)": "79583",
            "setting()": "61474",
            "symbol()": "infinite",
            "teamMember(address)": "2595",
            "totalSupply()": "2392",
            "transfer(address,uint256)": "infinite",
            "transferFrom(address,address,uint256)": "infinite"
        }
    }
}